{
  "abi": [
    {
      "inputs": [],
      "stateMutability": "nonpayable",
      "type": "constructor"
    },
    {
      "inputs": [
        {
          "internalType": "address",
          "name": "target",
          "type": "address"
        }
      ],
      "name": "AddressEmptyCode",
      "type": "error"
    },
    {
      "inputs": [],
      "name": "AdminOnly",
      "type": "error"
    },
    {
      "inputs": [
        {
          "internalType": "address",
          "name": "implementation",
          "type": "address"
        }
      ],
      "name": "ERC1967InvalidImplementation",
      "type": "error"
    },
    {
      "inputs": [],
      "name": "ERC1967NonPayable",
      "type": "error"
    },
    {
      "inputs": [],
      "name": "FailedInnerCall",
      "type": "error"
    },
    {
      "inputs": [],
      "name": "InvalidClassLevel",
      "type": "error"
    },
    {
      "inputs": [],
      "name": "InvalidInitialization",
      "type": "error"
    },
    {
      "inputs": [],
      "name": "NotInitializing",
      "type": "error"
    },
    {
      "inputs": [],
      "name": "UUPSUnauthorizedCallContext",
      "type": "error"
    },
    {
      "inputs": [
        {
          "internalType": "bytes32",
          "name": "slot",
          "type": "bytes32"
        }
      ],
      "name": "UUPSUnsupportedProxiableUUID",
      "type": "error"
    },
    {
      "anonymous": false,
      "inputs": [
        {
          "indexed": false,
          "internalType": "address",
          "name": "newClonesAddressStorage",
          "type": "address"
        }
      ],
      "name": "ClonesAddressStorageUpdated",
      "type": "event"
    },
    {
      "anonymous": false,
      "inputs": [
        {
          "indexed": false,
          "internalType": "uint64",
          "name": "version",
          "type": "uint64"
        }
      ],
      "name": "Initialized",
      "type": "event"
    },
    {
      "anonymous": false,
      "inputs": [
        {
          "indexed": true,
          "internalType": "address",
          "name": "implementation",
          "type": "address"
        }
      ],
      "name": "Upgraded",
      "type": "event"
    },
    {
      "inputs": [],
      "name": "INTERFACE_ID",
      "outputs": [
        {
          "internalType": "bytes4",
          "name": "",
          "type": "bytes4"
        }
      ],
      "stateMutability": "view",
      "type": "function"
    },
    {
      "inputs": [],
      "name": "MAX_LEVEL",
      "outputs": [
        {
          "internalType": "uint256",
          "name": "",
          "type": "uint256"
        }
      ],
      "stateMutability": "view",
      "type": "function"
    },
    {
      "inputs": [],
      "name": "UPGRADE_INTERFACE_VERSION",
      "outputs": [
        {
          "internalType": "string",
          "name": "",
          "type": "string"
        }
      ],
      "stateMutability": "view",
      "type": "function"
    },
    {
      "inputs": [],
      "name": "clones",
      "outputs": [
        {
          "internalType": "contract IClonesAddressStorage",
          "name": "",
          "type": "address"
        }
      ],
      "stateMutability": "view",
      "type": "function"
    },
    {
      "inputs": [
        {
          "internalType": "uint256",
          "name": "desiredLevel",
          "type": "uint256"
        }
      ],
      "name": "getExpForLevel",
      "outputs": [
        {
          "internalType": "uint256",
          "name": "",
          "type": "uint256"
        }
      ],
      "stateMutability": "view",
      "type": "function"
    },
    {
      "inputs": [
        {
          "internalType": "uint256",
          "name": "currentLevel",
          "type": "uint256"
        }
      ],
      "name": "getExperienceForNextLevel",
      "outputs": [
        {
          "internalType": "uint256",
          "name": "",
          "type": "uint256"
        }
      ],
      "stateMutability": "view",
      "type": "function"
    },
    {
      "inputs": [
        {
          "internalType": "uint256",
          "name": "currentLevel",
          "type": "uint256"
        }
      ],
      "name": "getLockedExperience",
      "outputs": [
        {
          "internalType": "uint256",
          "name": "",
          "type": "uint256"
        }
      ],
      "stateMutability": "view",
      "type": "function"
    },
    {
      "inputs": [
        {
          "internalType": "address",
          "name": "_clonesAddressStorage",
          "type": "address"
        }
      ],
      "name": "initialize",
      "outputs": [],
      "stateMutability": "nonpayable",
      "type": "function"
    },
    {
      "inputs": [
        {
          "internalType": "address",
          "name": "account",
          "type": "address"
        },
        {
          "internalType": "uint256",
          "name": "classId",
          "type": "uint256"
        }
      ],
      "name": "levelRequirementsMet",
      "outputs": [
        {
          "internalType": "bool",
          "name": "",
          "type": "bool"
        }
      ],
      "stateMutability": "view",
      "type": "function"
    },
    {
      "inputs": [],
      "name": "proxiableUUID",
      "outputs": [
        {
          "internalType": "bytes32",
          "name": "",
          "type": "bytes32"
        }
      ],
      "stateMutability": "view",
      "type": "function"
    },
    {
      "inputs": [
        {
          "internalType": "bytes4",
          "name": "interfaceId",
          "type": "bytes4"
        }
      ],
      "name": "supportsInterface",
      "outputs": [
        {
          "internalType": "bool",
          "name": "",
          "type": "bool"
        }
      ],
      "stateMutability": "view",
      "type": "function"
    },
    {
      "inputs": [
        {
          "internalType": "address",
          "name": "newClonesAddressStorage",
          "type": "address"
        }
      ],
      "name": "updateClonesAddressStorage",
      "outputs": [],
      "stateMutability": "nonpayable",
      "type": "function"
    },
    {
      "inputs": [
        {
          "internalType": "address",
          "name": "newImplementation",
          "type": "address"
        },
        {
          "internalType": "bytes",
          "name": "data",
          "type": "bytes"
        }
      ],
      "name": "upgradeToAndCall",
      "outputs": [],
      "stateMutability": "payable",
      "type": "function"
    }
  ],
  "bytecode": {
    "object": "0x60a06040523060805234801561001457600080fd5b5061001d610022565b6100d4565b7ff0c57e16840df040f15088dc2f81fe391c3923bec73e23a9662efc9c229c6a00805468010000000000000000900460ff16156100725760405163f92ee8a960e01b815260040160405180910390fd5b80546001600160401b03908116146100d15780546001600160401b0319166001600160401b0390811782556040519081527fc7f505b2f371ae2175ee4913f4499e1f2633a7b5936321eed1cdaeb6115181d29060200160405180910390a15b50565b6080516115e66100fd60003960008181610bf501528181610c1e0152610f9801526115e66000f3fe6080604052600436106100d25760003560e01c8063627ae1b11161007f578063ad3cb1cc11610059578063ad3cb1cc14610270578063b57c81bd146102c6578063c4d66de8146102e6578063db83352c1461030657600080fd5b8063627ae1b11461021b57806362a543961461023b578063a49062d41461025b57600080fd5b806338ae446b116100b057806338ae446b146101c35780634f1ef286146101e557806352d1902d146101f857600080fd5b806301ffc9a7146100d757806309b862b91461010c57806335eef8d714610171575b600080fd5b3480156100e357600080fd5b506100f76100f23660046112b0565b610326565b60405190151581526020015b60405180910390f35b34801561011857600080fd5b506101407ffe211eb10000000000000000000000000000000000000000000000000000000081565b6040517fffffffff000000000000000000000000000000000000000000000000000000009091168152602001610103565b34801561017d57600080fd5b5060145461019e9073ffffffffffffffffffffffffffffffffffffffff1681565b60405173ffffffffffffffffffffffffffffffffffffffff9091168152602001610103565b3480156101cf57600080fd5b506101e36101de366004611314565b61040b565b005b6101e36101f3366004611360565b6105db565b34801561020457600080fd5b5061020d6105fa565b604051908152602001610103565b34801561022757600080fd5b5061020d610236366004611442565b610629565b34801561024757600080fd5b506100f761025636600461145b565b61068d565b34801561026757600080fd5b5061020d601481565b34801561027c57600080fd5b506102b96040518060400160405280600581526020017f352e302e3000000000000000000000000000000000000000000000000000000081525081565b60405161010391906114ab565b3480156102d257600080fd5b5061020d6102e1366004611442565b610931565b3480156102f257600080fd5b506101e3610301366004611314565b61094d565b34801561031257600080fd5b5061020d610321366004611442565b610b84565b60007f01ffc9a7000000000000000000000000000000000000000000000000000000007fffffffff00000000000000000000000000000000000000000000000000000000831614806103b957507fffffffff0000000000000000000000000000000000000000000000000000000082167ffe211eb100000000000000000000000000000000000000000000000000000000145b8061040557507f01ffc9a7000000000000000000000000000000000000000000000000000000007fffffffff000000000000000000000000000000000000000000000000000000008316145b92915050565b601460009054906101000a900473ffffffffffffffffffffffffffffffffffffffff1673ffffffffffffffffffffffffffffffffffffffff16638932f1ee6040518163ffffffff1660e01b8152600401602060405180830381865afa158015610478573d6000803e3d6000fd5b505050506040513d601f19601f8201168201806040525081019061049c91906114fc565b6040517f24d7806c00000000000000000000000000000000000000000000000000000000815233600482015273ffffffffffffffffffffffffffffffffffffffff91909116906324d7806c90602401602060405180830381865afa158015610508573d6000803e3d6000fd5b505050506040513d601f19601f8201168201806040525081019061052c9190611519565b610562576040517fc15c60b400000000000000000000000000000000000000000000000000000000815260040160405180910390fd5b601480547fffffffffffffffffffffffff00000000000000000000000000000000000000001673ffffffffffffffffffffffffffffffffffffffff83169081179091556040519081527f0b03c6bcc9fb7a17181028202fe63187aa84e6c73f4549f76da287c633e710c99060200160405180910390a150565b6105e3610bdd565b6105ec82610ce3565b6105f68282610e3d565b5050565b6000610604610f80565b507f360894a13ba1a3210667c828492db98dca3e2076cc3735a920a3ca505d382bbc90565b600060148210610665576040517f5ba37f4800000000000000000000000000000000000000000000000000000000815260040160405180910390fd5b61066e82610b84565b600083601481106106815761068161153b565b0154610405919061156a565b600080601460009054906101000a900473ffffffffffffffffffffffffffffffffffffffff1673ffffffffffffffffffffffffffffffffffffffff166331e778536040518163ffffffff1660e01b8152600401602060405180830381865afa1580156106fd573d6000803e3d6000fd5b505050506040513d601f19601f8201168201806040525081019061072191906114fc565b6040517efdd58e00000000000000000000000000000000000000000000000000000000815273ffffffffffffffffffffffffffffffffffffffff868116600483015260248201869052919091169062fdd58e90604401602060405180830381865afa158015610794573d6000803e3d6000fd5b505050506040513d601f19601f820116820180604052508101906107b891906115a4565b9050806000036107f4576040517f5ba37f4800000000000000000000000000000000000000000000000000000000815260040160405180910390fd5b601454604080517fb3523b4a000000000000000000000000000000000000000000000000000000008152905160009273ffffffffffffffffffffffffffffffffffffffff169163b3523b4a9160048083019260209291908290030181865afa158015610864573d6000803e3d6000fd5b505050506040513d601f19601f8201168201806040525081019061088891906114fc565b6040517f70a0823100000000000000000000000000000000000000000000000000000000815273ffffffffffffffffffffffffffffffffffffffff878116600483015291909116906370a0823190602401602060405180830381865afa1580156108f6573d6000803e3d6000fd5b505050506040513d601f19601f8201168201806040525081019061091a91906115a4565b90508061092683610629565b111595945050505050565b60008082601481106109455761094561153b565b015492915050565b7ff0c57e16840df040f15088dc2f81fe391c3923bec73e23a9662efc9c229c6a00805468010000000000000000810460ff16159067ffffffffffffffff166000811580156109985750825b905060008267ffffffffffffffff1660011480156109b55750303b155b9050811580156109c3575080155b156109fa576040517ff92ee8a900000000000000000000000000000000000000000000000000000000815260040160405180910390fd5b84547fffffffffffffffffffffffffffffffffffffffffffffffff00000000000000001660011785558315610a5b5784547fffffffffffffffffffffffffffffffffffffffffffffff00ffffffffffffffff16680100000000000000001785555b6000805561012c600155610384600255610a8c6003556119646004556136b06005556159d86006556184d060075561bb8060085561fa0060095562014c08600a55620186a0600b556201d4c0600c55620222e0600d5562028488600e556202f9b8600f5562036ee860105562040b286011556204a76860125562056ab8601355601480547fffffffffffffffffffffffff00000000000000000000000000000000000000001673ffffffffffffffffffffffffffffffffffffffff88161790558315610b7c5784547fffffffffffffffffffffffffffffffffffffffffffffff00ffffffffffffffff168555604051600181527fc7f505b2f371ae2175ee4913f4499e1f2633a7b5936321eed1cdaeb6115181d29060200160405180910390a15b505050505050565b600081600003610bc0576040517f5ba37f4800000000000000000000000000000000000000000000000000000000815260040160405180910390fd5b6000610bcd60018461156a565b601481106109455761094561153b565b3073ffffffffffffffffffffffffffffffffffffffff7f0000000000000000000000000000000000000000000000000000000000000000161480610caa57507f000000000000000000000000000000000000000000000000000000000000000073ffffffffffffffffffffffffffffffffffffffff16610c917f360894a13ba1a3210667c828492db98dca3e2076cc3735a920a3ca505d382bbc5473ffffffffffffffffffffffffffffffffffffffff1690565b73ffffffffffffffffffffffffffffffffffffffff1614155b15610ce1576040517fe07c8dba00000000000000000000000000000000000000000000000000000000815260040160405180910390fd5b565b601460009054906101000a900473ffffffffffffffffffffffffffffffffffffffff1673ffffffffffffffffffffffffffffffffffffffff16638932f1ee6040518163ffffffff1660e01b8152600401602060405180830381865afa158015610d50573d6000803e3d6000fd5b505050506040513d601f19601f82011682018060405250810190610d7491906114fc565b6040517f24d7806c00000000000000000000000000000000000000000000000000000000815233600482015273ffffffffffffffffffffffffffffffffffffffff91909116906324d7806c90602401602060405180830381865afa158015610de0573d6000803e3d6000fd5b505050506040513d601f19601f82011682018060405250810190610e049190611519565b610e3a576040517fc15c60b400000000000000000000000000000000000000000000000000000000815260040160405180910390fd5b50565b8173ffffffffffffffffffffffffffffffffffffffff166352d1902d6040518163ffffffff1660e01b8152600401602060405180830381865afa925050508015610ec2575060408051601f3d9081017fffffffffffffffffffffffffffffffffffffffffffffffffffffffffffffffe0168201909252610ebf918101906115a4565b60015b610f15576040517f4c9c8ce300000000000000000000000000000000000000000000000000000000815273ffffffffffffffffffffffffffffffffffffffff831660048201526024015b60405180910390fd5b7f360894a13ba1a3210667c828492db98dca3e2076cc3735a920a3ca505d382bbc8114610f71576040517faa1d49a400000000000000000000000000000000000000000000000000000000815260048101829052602401610f0c565b610f7b8383610fef565b505050565b3073ffffffffffffffffffffffffffffffffffffffff7f00000000000000000000000000000000000000000000000000000000000000001614610ce1576040517fe07c8dba00000000000000000000000000000000000000000000000000000000815260040160405180910390fd5b610ff882611052565b60405173ffffffffffffffffffffffffffffffffffffffff8316907fbc7cd75a20ee27fd9adebab32041f755214dbc6bffa90cc0225b39da2e5c2d3b90600090a280511561104a57610f7b8282611121565b6105f66111a4565b8073ffffffffffffffffffffffffffffffffffffffff163b6000036110bb576040517f4c9c8ce300000000000000000000000000000000000000000000000000000000815273ffffffffffffffffffffffffffffffffffffffff82166004820152602401610f0c565b7f360894a13ba1a3210667c828492db98dca3e2076cc3735a920a3ca505d382bbc80547fffffffffffffffffffffffff00000000000000000000000000000000000000001673ffffffffffffffffffffffffffffffffffffffff92909216919091179055565b60606000808473ffffffffffffffffffffffffffffffffffffffff168460405161114b91906115bd565b600060405180830381855af49150503d8060008114611186576040519150601f19603f3d011682016040523d82523d6000602084013e61118b565b606091505b509150915061119b8583836111dc565b95945050505050565b3415610ce1576040517fb398979f00000000000000000000000000000000000000000000000000000000815260040160405180910390fd5b6060826111f1576111ec8261126e565b611267565b8151158015611215575073ffffffffffffffffffffffffffffffffffffffff84163b155b15611264576040517f9996b31500000000000000000000000000000000000000000000000000000000815273ffffffffffffffffffffffffffffffffffffffff85166004820152602401610f0c565b50805b9392505050565b80511561127e5780518082602001fd5b6040517f1425ea4200000000000000000000000000000000000000000000000000000000815260040160405180910390fd5b6000602082840312156112c257600080fd5b81357fffffffff000000000000000000000000000000000000000000000000000000008116811461126757600080fd5b73ffffffffffffffffffffffffffffffffffffffff81168114610e3a57600080fd5b60006020828403121561132657600080fd5b8135611267816112f2565b7f4e487b7100000000000000000000000000000000000000000000000000000000600052604160045260246000fd5b6000806040838503121561137357600080fd5b823561137e816112f2565b9150602083013567ffffffffffffffff8082111561139b57600080fd5b818501915085601f8301126113af57600080fd5b8135818111156113c1576113c1611331565b604051601f82017fffffffffffffffffffffffffffffffffffffffffffffffffffffffffffffffe0908116603f0116810190838211818310171561140757611407611331565b8160405282815288602084870101111561142057600080fd5b8260208601602083013760006020848301015280955050505050509250929050565b60006020828403121561145457600080fd5b5035919050565b6000806040838503121561146e57600080fd5b8235611479816112f2565b946020939093013593505050565b60005b838110156114a257818101518382015260200161148a565b50506000910152565b60208152600082518060208401526114ca816040850160208701611487565b601f017fffffffffffffffffffffffffffffffffffffffffffffffffffffffffffffffe0169190910160400192915050565b60006020828403121561150e57600080fd5b8151611267816112f2565b60006020828403121561152b57600080fd5b8151801515811461126757600080fd5b7f4e487b7100000000000000000000000000000000000000000000000000000000600052603260045260246000fd5b81810381811115610405577f4e487b7100000000000000000000000000000000000000000000000000000000600052601160045260246000fd5b6000602082840312156115b657600080fd5b5051919050565b600082516115cf818460208701611487565b919091019291505056fea164736f6c6343000814000a",
    "linkReferences": {}
  },
  "methodIdentifiers": {
    "INTERFACE_ID()": "09b862b9",
    "MAX_LEVEL()": "a49062d4",
    "UPGRADE_INTERFACE_VERSION()": "ad3cb1cc",
    "clones()": "35eef8d7",
    "getExpForLevel(uint256)": "b57c81bd",
    "getExperienceForNextLevel(uint256)": "627ae1b1",
    "getLockedExperience(uint256)": "db83352c",
    "initialize(address)": "c4d66de8",
    "levelRequirementsMet(address,uint256)": "62a54396",
    "proxiableUUID()": "52d1902d",
    "supportsInterface(bytes4)": "01ffc9a7",
    "updateClonesAddressStorage(address)": "38ae446b",
    "upgradeToAndCall(address,bytes)": "4f1ef286"
  },
  "id": 93
}